:1000000019C01895189590C11895189518951895B8
:1000100018951895189518951895DBC11895189589
:1000200016C118951895189518951895189518953E
:10003000189518958FEF8DBFC8EDECE84E2E84E033
:100040008EBFD4E0F4E05F2EEEEFF3E0A0E0B1E08D
:10005000A89584B7082E877F84BF88E1992780936D
:1000600060009093600088278D933197E9F76624AC
:1000700080916B00826080936B0080916B00846044
:1000800080936B0084E085BD80E084BD80E0809338
:10009000800083E08093810080916E008160809376
:1000A0006E0080916F00816080936F008091680086
:1000B00081608093680078948FEF8AB921982298A4
:1000C000239A249A259A81E080930A018AEF8093EB
:1000D0001E0180E08093020186E08093030182E1AB
:1000E00080930401ABE0B1E0E2E4F8E07CD22B982D
:1000F0002C982D9882E08093010153D3A1E0B1E0C8
:100100001C9165D3002762FA0EF401E040E0041769
:1001100009F006C088E083B9E2E0F0E028D205C02B
:10012000A1E0B1E08C918E5F8C9380E183B946D3DE
:10013000002762FA0EF401E040E0041709F0DACF7C
:100140002B982C982D9880E080931D0119D0009158
:100150001E01003009F007C046D02C9A84EF91E0D0
:100160002DD22C986BD000911E010A3F08F005C0DB
:10017000AEE1B1E08C918F5F8C93E9CFF894FFCF23
:1001800010D312E024D31AE022D310E020D310E0E1
:100190001ED312E01CD317E01AD310D30895A4E0A5
:1001A000B1E08C91F5D1A5E0B1E08C93A3E0B1E092
:1001B0008C91EED1A6E0B1E08C9380E080930701B2
:1001C000F0D212E004D310E002D3A7E0B1E01C911A
:1001D000FED2A6E0B1E01C91FAD2A5E0B1E01C91FC
:1001E000F6D2ECD20895DDD212E0F1D210E0EFD2D7
:1001F000D8D213E0ECD20AD3A7E0B1E01C9306D327
:10020000A6E0B1E01C9300D3A5E0B1E01C93D6D2E8
:10021000A5E0B1E09C91C2D1A4E0B1E08C93A6E04E
:10022000B1E09C91BBD1A3E0B1E08C93A7E0B1E039
:100230009C91B4D1A2E0B1E08C930895B2D212E0C7
:10024000C6D21EE0C4D211E0C2D2B8D208950F9235
:100250001F922F923F924F925F927F92AF92BF92E6
:100260000F931F932F933F934F935F936F937F93BE
:100270008F939F93AF93BF93CF93DF93EF93FF93AE
:100280008FB78F938CEE80934600AAE0B1E08C91FB
:100290008F5F8C9300910A01043010F009F001C0C7
:1002A00003C080E080930A0180910A01EBE0F1E055
:1002B00001E00A93A0E1B1E04AD200910A0141E0D5
:1002C000041BACE1B1E00C9394E0ACE1B1E090D15F
:1002D00000911C010F93A0E1B1E002D2402F0F91D9
:1002E000042BACE1B1E00C93ACE1B1E08C918BB9A3
:1002F0008F918FBFFF91EF91DF91CF91BF91AF9120
:100300009F918F917F916F915F914F913F912F912D
:100310001F910F91BF90AF907F905F904F903F9053
:100320002F901F900F9018950F921F922F923F922F
:100330004F925F927F92AF92BF920F931F932F9332
:100340003F934F935F936F937F938F939F93AF935D
:10035000BF93CF93DF93EF93FF938FB78F930027D4
:10036000A3E2B0E08C9181FB0EF401E040E00417C1
:1003700009F005C08091000180688093000100278A
:10038000A3E2B0E08C9182FB0EF401E040E00417A0
:1003900009F003C080E080931E018F918FBFFF9111
:1003A000EF91DF91CF91BF91AF919F918F917F910D
:1003B0006F915F914F913F912F911F910F91BF903E
:1003C000AF907F905F904F903F902F901F900F9035
:1003D00018950F921F922F923F924F925F927F92A9
:1003E000AF92BF920F931F932F933F934F935F93BF
:1003F0006F937F938F939F93AF93BF93CF93DF932D
:10040000EF93FF938FB78F9385EE99EF90938500CD
:1004100080938400ADE1B1E08C918F5F8C93EBE031
:10042000F1E0A7E1B1E08ED100911D01053081E03E
:1004300009F080E08F9300911D010A3081E009F0FE
:1004400080E09F91892B882309F402C080E283B960
:1004500000911D01093010F009F001C065C080E075
:1004600080931D01A7E1B1E0E3E0F1E0EFD0A7E167
:10047000B1E08CD1082F023008F017C086E0ADD073
:10048000E7E1F1E0A881B9815DD1A7E1B1E0E8E45D
:10049000F8E0A9D0E881F981A7E1B1E061D052D1BB
:1004A00086E0481A8827580A2296A2E1B1E0E4E0E3
:1004B000F1E0CCD086E091D0E7E1F1E0A881B9810C
:1004C00041D1E2E1F1E0A7E1B1E03CD1E881F9817D
:1004D000A7E1B1E045D036D186E0481A8827580A0E
:1004E0002296A7E1B1E052D1082F043008F017C0DE
:1004F00086E073D0E7E1F1E0A881B98123D1A7E1DB
:10050000B1E0E8E4F8E06FD0E881F981A7E1B1E07B
:1005100027D018D186E0481A8827580A2296E7E1A2
:10052000F1E0ABE0B1E00ED18F918FBFFF91EF9181
:10053000DF91CF91BF91AF919F918F917F916F91FB
:100540005F914F913F912F911F910F91BF90AF906D
:100550007F905F904F903F902F901F900F90189535
:100560008F938D918823E9F711978F91089588EEE5
:1005700093E024D03197D9F70895982F82958F7002
:10058000805D8D939F70905D9D9388278C930895D7
:100590004AE0082FEBD00295802B0895892F8F70A9
:1005A000905110F0865FFCCF08953197F1F70895D0
:1005B000689462F80895E89462F80895EF93FF93C1
:1005C000EE27E82BE92B31F0EAEFF0E03197F1F775
:1005D0000197D1F7FF91EF9108955A924A92480EF0
:1005E0008827581E08950CD00D920020E1F7089539
:1005F000903029F08C91880F9A95E9F78C930895A3
:10060000C895319600200895040F151F261F371F27
:100610000895000F111F221F331F08950095109594
:10062000209530950F5F1F4F2F4F3F4F0895019139
:1006300010810EC001911191219130810BC0019167
:10064000108117FF05C03FEF2FEF04C00081112775
:100650002227332737FF03C0E1DF8DE28D93CF934D
:10066000DF93CF92DF92EF92AA24BB24CC24DD2427
:10067000EE2440E2CAE0DD2755E093E38881890F4C
:1006800087FD9F7083FD907F891B89935A95A9F7F9
:10069000C0DFAA1CBB1CCC1CDD1CEE1C4A9551F70C
:1006A000E894EFE0FF2782910ED0EB30E0F71EF0E8
:1006B00068948A2D0CD088278D93EF90DF90CF908F
:1006C000DF91CF910895982F829501D0892F8F7057
:1006D000805D26F0803309F4089568948D93089521
:1006E00000271127222733271DD08A3328F480338F
:1006F00018F005D015D0F9CF0EF490CF089580539F
:100700008F93402F512F622F732F83DF82DF7CDF87
:1007100080DF8F919927080F191F291F391F08950E
:100720008D910895E894FCDF8032E9F38B32D9F3A0
:100730008930C9F38D3211F46894F2CF0895882777
:100740008D93089581918D938823E1F70895099100
:100750009191992351F08A95D9F7319781918D9391
:100760000A9519F08823D1F70895E9CFFF93881BE4
:10077000F9E0001FFA9511F4FF910895881F841B7A
:1007800018F4840F8894F5CF0894F3CF8FEF8395F6
:100790009D919923E1F70895449845983C983D9898
:1007A00008953D9A3C9803D03D9801D03C9A0000B2
:1007B0000000000000000000000008953D9A3C9AEF
:1007C000F6DF3D98359BFECFF2DF3C98F0CF0894E2
:1007D000111F01C0110F69F03D9A18F400003C98F8
:1007E00002C03C9A00C0E3DF3D98359BFECFDFDFBF
:1007F000F1CF3D9A3C98DBDF3D98359BFECFE894E6
:100800003499689462F8D3CF089401C08894331F58
:1008100011E03D9A3C98CBDF3D98359BFECFC7DF7A
:10082000889434990894111FA0F73D9A379510F4D5
:100830003C9801C03C9ABBDF3D98359BFECFB7DFAB
:0A0840000895313830360000300012
:00000001FF
