:1000000019C018951895189518951895189518955C
:1000100018951895189518951895C9C0189518959C
:1000200059C01895189518951895189518951895FC
:10003000189518958FEF8DBFC8EDE8E84E2E84E037
:100040008EBFD4E0F4E05F2EEEEFF3E0A0E0B1E08D
:10005000A89584B7082E877F84BF88E1992780936D
:1000600060009093600088278D933197E9F76624AC
:1000700084E085BD80E084BD80E08093800083E0E3
:100080008093810080916E00816080936E008091EA
:100090006F00816080936F0078948FEF8AB9239A04
:1000A000249A259A80E08093030180E080930001E8
:1000B0008BE38093010186E080930201A4E0B1E02C
:1000C000E2E7F5E08DD182E390E075D1FCCFF894C2
:1000D000FFCF08950F921F922F923F924F925F92FF
:1000E0007F92AF92BF920F931F932F933F934F93A3
:1000F0005F936F937F938F939F93AF93BF93CF93B0
:10010000DF93EF93FF938FB78F938CEE809346002E
:10011000A3E0B1E08C918F5F8C93009103010430D8
:1001200010F009F001C003C080E0809303018091CA
:100130000301E4E0F1E001E00A93A9E0B1E004D2B8
:100140000091030141E0041BA6E1B1E00C9394E0AF
:10015000A6E1B1E04AD1009116010F93A9E0B1E008
:10016000BCD1402F0F91042BA6E1B1E00C93A6E186
:10017000B1E08C918BB98F918FBFFF91EF91DF919F
:10018000CF91BF91AF919F918F917F916F915F912F
:100190004F913F912F911F910F91BF90AF907F9002
:1001A0005F904F903F902F901F900F9018950F9257
:1001B0001F922F923F924F925F927F92AF92BF9287
:1001C0000F931F932F933F934F935F936F937F935F
:1001D0008F939F93AF93BF93CF93DF93EF93FF934F
:1001E0008FB78F9385EE99EF90938500809384006D
:1001F000E4E0F1E0A0E1B1E0A2D1A5E1B1E08C91B1
:100200008F5F8C9300911501053081E009F080E04B
:100210008F93009115010A3081E009F080E09F91F1
:10022000892B882309F402C080E283B9009115016B
:10023000093010F009F001C08DC080E080931501F5
:10024000A0E0B1E08C918F5F8C93009100010B33A3
:1002500010F009F001C07EC080E080930001A1E0B1
:10026000B1E08C918F5F8C93009101010B3310F002
:1002700009F001C012C080E080930101A2E0B1E06A
:100280008C918F5F8C9300910201073110F009F07F
:1002900001C003C080E080930201A0E1B1E0E1E091
:1002A000F1E0D1D0A0E1B1E05ED1082F023008F03A
:1002B00017C086E08FD0E0E1F1E0A881B9813FD19D
:1002C000A0E1B1E0E8E7F5E08BD0E881F981A0E1B9
:1002D000B1E061D034D186E0481A8827580A2296C6
:1002E000ABE0B1E0E2E0F1E0AED086E073D0E0E177
:1002F000F1E0A881B98123D1EBE0F1E0A0E1B1E028
:100300001ED1E881F981A0E1B1E045D018D186E0A5
:10031000481A8827580A2296A0E1B1E024D1082F74
:10032000043008F017C086E055D0E0E1F1E0A88184
:10033000B98105D1A0E1B1E0E8E7F5E051D0E8816D
:10034000F981A0E1B1E027D0FAD086E0481A8827E9
:10035000580A2296E0E1F1E0A4E0B1E0F0D08F91FC
:100360008FBFFF91EF91DF91CF91BF91AF919F919F
:100370008F917F916F915F914F913F912F911F913D
:100380000F91BF90AF907F905F904F903F902F90D4
:100390001F900F9018958F938D918823E9F71197EF
:1003A0008F9108953197F1F70895689462F8089550
:1003B000E89462F80895EF93FF93EE27E82BE92B7A
:1003C00031F0EAEFF0E03197F1F70197D1F7FF91C3
:1003D000EF9108955A924A92480E8827581E089520
:1003E0000CD00D920020E1F70895903029F08C9107
:1003F000880F9A95E9F78C930895C8953196002057
:100400000895040F151F261F371F0895000F111F91
:10041000221F331F089500951095209530950F5F8A
:100420001F4F2F4F3F4F0895019110810EC0019132
:100430001191219130810BC00191108117FF05C0EE
:100440003FEF2FEF04C0008111272227332737FF0A
:1004500003C0E1DF8DE28D93CF93DF93CF92DF92E4
:10046000EF92AA24BB24CC24DD24EE2440E2CAE08F
:10047000DD2755E093E38881890F87FD9F7083FD19
:10048000907F891B89935A95A9F7C0DFAA1CBB1CD2
:10049000CC1CDD1CEE1C4A9551F7E894EFE0FF27D9
:1004A00082910ED0EB30E0F71EF068948A2D0CD0CC
:1004B00088278D93EF90DF90CF90DF91CF910895B3
:1004C000982F829501D0892F8F70805D26F0803320
:1004D00009F4089568948D93089500271127222721
:1004E00033271DD08A3328F4803318F005D015D077
:1004F000F9CF0EF490CF089580538F93402F512F52
:10050000622F732F83DF82DF7CDF80DF8F9199275B
:10051000080F191F291F391F08958D910895E89418
:10052000FCDF8032E9F38B32D9F38930C9F38D32A5
:1005300011F46894F2CF089588278D9308958191DE
:100540008D938823E1F7089509919191992351F0B2
:100550008A95D9F7319781918D930A9519F088235F
:10056000D1F70895E9CF8FEF83959D919923E1F716
:0A05700008953036353900003000E0
:00000001FF
